:100000000C9434000C943E000C943E000C943E0082
:100010000C943E000C943E000C943E000C943E0068
:100020000C943E000C943E000C943E000C943E0058
:100030000C943E000C943E000C943E000C943E0048
:100040000C943E000C943E000C943E000C943E0038
:100050000C943E000C943E000C943E000C943E0028
:100060000C943E000C943E0011241FBECFEFD8E04C
:10007000DEBFCDBF0E9440000C945F000C940000D6
:100080008AB1837E8AB9209A84B18E6084B929B1FD
:1000900099B189B184FF0BC0289A22FF0AC0299A1E
:1000A00093FF09C02A9A84FF08C02B9AF0CF2898A2
:1000B000F4CF2998F5CF2A98F6CF2B98E8CFF8946B
:0200C000FFCF70
:00000001FF
