:100000000C9434000C943E000C943E000C943E0082
:100010000C943E000C943E000C943E000C943E0068
:100020000C943E000C943E000C943E000C943E0058
:100030000C943E000C943E000C943E000C943E0048
:100040000C943E000C943E000C943E000C943E0038
:100050000C943E000C943E000C943E000C943E0028
:100060000C943E000C943E0011241FBECFEFD8E04C
:10007000DEBFCDBF0E9440000C9470000C940000C5
:100080005298209A80E090E029B124708130910547
:10009000D9F00297E1F02115A1F083E0289AEFE46E
:1000A000F3EC3197F1F700C000002898EFE4F3EC8F
:1000B0003197F1F700C00000815081F781E090E0B6
:1000C000E3CF289880E0FBCF289882E0F8CF22FB8E
:1000D000442740F950E0CA01880F991F2898D4CFCF
:0400E000F894FFCFC2
:00000001FF
