:100000000C9434000C943E000C943E000C943E0082
:100010000C943E000C943E000C943E000C943E0068
:100020000C943E000C943E000C943E000C943E0058
:100030000C943E000C943E000C943E000C943E0048
:100040000C943E000C943E000C943E000C943E0038
:100050000C943E000C943E000C943E000C943E0028
:100060000C943E000C943E0011241FBECFEFD8E04C
:10007000DEBFCDBF0E9440000C9460000C940000D5
:100080005298209A80E090E029B124708130910547
:1000900059F0029761F0211521F0289A81E090E053
:1000A000F3CF289880E0FBCF289882E0F8CF22FB9E
:1000B000442740F950E0CA01880F991F2898E4CFDF
:0400C000F894FFCFE2
:00000001FF
