:100000000C9434000C943E000C943E000C943E0082
:100010000C943E000C943E000C943E000C943E0068
:100020000C943E000C943E000C943E000C943E0058
:100030000C943E000C943E000C943E000C943E0048
:100040000C943E000C943E000C943E000C943E0038
:100050000C943E000C943E000C943E000C943E0028
:100060000C943E000C943E0011241FBECFEFD8E04C
:10007000DEBFCDBF0E9440000C9464000C940000D1
:10008000529884B18F6784B980E090E03FE366E0E6
:1000900029B124708130910559F0029761F0211542
:1000A00021F065B981E090E0F3CF35B980E0FBCF76
:1000B00035B982E0F8CF22FB442740F950E0CA016D
:0C00C000880F991F35B9E4CFF894FFCFEA
:00000001FF
